:100000006F50800B1300000013000000130000006D
:100010001300000013000000130000001300000094
:100020001300000013000000130000001300000084
:08003000130000007300100032
:100038000000000000000000363B00003A3B0000D2
:1000480000000000FE4F000000000000000000005B
:1000580000500000025000000000000000000000F6
:10006800B639000000000000740200000000000023
:10007800085000000A5000000C5000003A3D0000F3
:1000880010500000125000001450000016500000DC
:10009800185000001A5000001C5000001E500000AC
:1000A800205000002250000024500000265000007C
:1000B800285000002A5000002C5000002E5000004C
:1000C800305000003250000034500000365000001C
:1000D800385000003A5000003C5000003E500000EC
:1000E80040500000425000004450000046500000BC
:1000F800485000004A5000004C5000004E5000008C
:100108005050000052500000A83B0000565000001C
:10011800585000005A5000005C5000005E5000002B
:1001280060500000625000006450000066500000FB
:10013800685000006A5000006C5000006E500000CB
:10014800705000007250000074500000765000009B
:10015800785000007A5000007C5000007E5000006B
:10016800805000008250000084500000865000003B
:10017800885000008A5000008C5000008E5000000B
:100188009050000092500000945000002E3C000057
:10019800B43C00009A5000009C5000009E500000A3
:1001A800A0500000A2500000A4500000A65000007B
:1001B800A8500000AA500000AC500000AE5000004B
:1001C800B0500000B2500000B4500000B65000001B
:1001D8000000000000000000000000000000000017
:1001E8000000000000000000000000000000000007
:0801F8000000000000000000FF
:1002000073700430828073600430828073750430B0
:10021000828073100530828083A2818403A1020052
:1002200011A0010082427390123492427390023006
:10023000A240B2414242D2426243F243025492543B
:100240002255B2554256D2566257F2570648964842
:100250002649B649464AD64A664BF64B065C965C3A
:10026000265DB65D465ED65E665FF65F0961730029
:1002700020300100197116CA9302000273A0428057
:10028000F322003016C2F322103416C006C40EC684
:1002900012C81ACC1ECE22D026D22AD42ED632D8BC
:1002A00036DA3ADC3EDEC2C0C6C2CAC4CEC6D2C846
:1002B000D6CADACCDECEE2D0E6D2EAD4EED6F2D896
:1002C000F6DAFADCFEDE8A8203A1818116C0EF3005
:1002D000C0670241938281841383418583A3020016
:1002E00023A023000323030023A0620003210300B3
:1002F000924273900230824273901234A240B24113
:100300004242D2426243F243025492542255B255C1
:100310004256D2566257F257064896482649B64981
:10032000464AD64A664BF64B065C965C265DB65D41
:10033000465ED65E665FF65F09617300203000009E
:100340003D432A876373C3029377F700BDEFADE5A2
:10035000937606FF3D8ABA960CC34CC30CC74CC7B4
:100360004107E36BD7FE11E28280B306C3408A06E1
:100370009702000096966780A6002307B700A306A1
:10038000B7002306B700A305B7002305B700A304F1
:10039000B7002304B700A303B7002303B700A302E9
:1003A000B7002302B700A301B7002301B700A300E1
:1003B000B7002300B700828093F5F50F9396850070
:1003C000D58D93960501D58D61B793962700970239
:1003D000000096968682E78086FA9680C1171D8F68
:1003E0003E96E374C3F8A5B73367B500FD530D8B94
:1003F00079E7B7877F7F9387F7F710419441B3720E
:10040000F6003363F600BE92B3E262006397720CAB
:100410006318D6065041D441B372F6003363F60038
:10042000BE92B3E262006398720A631BD604104561
:100430009445B372F6003363F600BE92B3E26200F5
:100440006391720A631ED6025045D445B372F6001A
:100450003363F600BE92B3E26200639A72086311DE
:10046000D60210499449B372F6003363F600BE9287
:10047000B3E26200639372085105D105E30FD6F62B
:100480001317060193970601631CF7001357060123
:1004900093D706013305F7409375F50F91E98280F4
:1004A0004183C1833305F7409375F50F91E1828055
:1004B0001377F70F93F7F70F3305F7408280034662
:1004C000050083C60500050585056313D60065FA9A
:1004D0003305D640828011059105E312D6FE014511
:1004E00082802105A105E31CD6FC014582803105EF
:1004F000B105E316D6FC014582804105C105E31034
:10050000D6FC0145828025C1411106C6AA8799ED16
:1005100037270040130707C058C171651305052030
:10052000EF40B0230145B240410182800947639DFD
:10053000E500374700401307074058C171651305B0
:100540000520EF40B00CF9BF19477D55E39DE5FC50
:1005500037270040130707807165D8C313050520AE
:10056000EF407015C1B77D558280FD5729C9A1C9DB
:1005700001114AC80329450006CE22CC26CA4EC620
:10058000630909002E84B384C5008549631B940068
:100590008147F2406244D2444249B2493E850561F6
:1005A0008280834504004A85EF50C02693050004ED
:1005B0004A85EF506027E31B35FF0504C1BF3E8528
:1005C000828019C54841133515003305A04082804B
:1005D0007D558280797126D24AD04ECE52CC06D635
:1005E00022D456CA372A0020A689FD567D577000AE
:1005F0009385018813050A44EF00F04A03A4C183E0
:10060000938AC183E30354FF484493850188E93BFF
:1006100009E51C481385018882970040E5B7938758
:100620008183984301E788C3014582807D5582809C
:10063000372500204111930600140D46938581242F
:100640001305054406C6EF00F04239ED9387C183D8
:10065000D146154693850162138581609CC3DCC336
:10066000EF00B05131E50568B707002037060000FC
:10067000B7A50000A94813080880938787490D474C
:1006800081461306465D938585DF1385019CEF1037
:10069000F06D0DE183A7818385C303A30700630D7C
:1006A0000300B240410102837955B240410182808A
:1006B0007555E5BF7155D5BF7D55C5BF83A78183EE
:1006C00091C703A347006303030002837D55828023
:1006D00083A7818395C3011122CC804706CEAA85CA
:1006E0007D5519C441460A85EF7000460A8502947B
:1006F000F2406244056182807D558280797122D406
:100700002A8426D213858160AE846C0832C606D650
:10071000EF00B04D324619C57D55B2502254925467
:1007200045618280F2471387C18354435CC3C0C7CD
:1007300084C790CB98C3D4C39CC283A78183E9DFCD
:100740009C4FF9DBA68522858297C1BF83A7818351
:1007500091C703A307026303030002837D558280D0
:10076000011122CC4AC82A842E890545814506CE2E
:1007700026CA32C436C6EF10D02C2246B246130524
:100780000439B2853686EF10F0211DE5EF30602A7E
:10079000AA84CA851305043AEF00E07C2A842685E2
:1007A000EF306029333580003305A040F2406244C9
:1007B000D2444249056182807D55CDBF011122CCD2
:1007C00052C40324052A032A452A26CA56C25AC0FF
:1007D00006CE4AC84EC6AE8A328B8144639E44011F
:1007E0000149F24062444A85D2444249B249224A10
:1007F000924A024B056182808329040022894E853A
:10080000EF70F07B2A866367AB00D6854E85EF706C
:10081000307C61D985042104D1B71D71A2CCD6C228
:10082000DAC05EDE62DC86CEA6CACAC8CEC6D2C434
:1008300066DA6AD86ED62A84B7AA000037AB000001
:10084000B7AB000037AC00000326C4330325843364
:10085000232004348145ED34014A0149A94C354D2A
:10086000894D7D56FD569305F1012285D53D75F9DB
:100870000327C433832784336374E9028349F10176
:10088000CA97930419002380370103298433232056
:1008900094342686CA85228515371DC9094929A0A1
:1008A000BA97A38F07FE11498325843313858BE202
:1008B000EF70303E2945EF70F04191476310F90A1F
:1008C00013050CE3EF70F03C2945EF70B040ADBF6D
:1008D0000327842A05C71C473AC68DC33E853EC4FC
:1008E000EF70F06D2A8663EBA4003247A247585F91
:1008F00039C7BE854A85EF70B07239C5B7A7000009
:100900009385C72F4A85EF70B07129E193858AE1FD
:100910004A85EF70F0700DED93050BE24A85EF709C
:1009200030700DE9639A99016318AA016396B403C4
:1009300023200434814981444E8A26891DB7CA8503
:100940003E85EF70F06855BF0D49B9BF1549A9BF85
:10095000194999BF1D4989BF0549B9B78947631F1F
:10096000F90003260434832584332285813DE30D79
:1009700005EC5C41E38A07EC8297F9B58324842A6D
:10098000E38404EC88401DC5D848DC40998F9DC3A2
:100990008329043463F33701BE89832584334E866B
:1009A0003A95EF70601ADC48BE99DC4423AA340102
:1009B0008507DCC48D47631CF90091479CC89C4C9B
:1009C0001385C401E38207E8EF10807DB5BD1547AC
:1009D000631AE90085479CC89C4CE39707E613859A
:1009E000C402DDB719476314E9008947EDB71D4715
:1009F000E31CE9E4CDB7011122CC2A840325453656
:100A0000B2862E869305002006CE26CAEF8060159A
:100A1000832544362AC637A500001305C5E0EF70CC
:100A200050272945EF70102B832544369304043753
:100A300026852EC4EF10200C3246A245C166FD1655
:100A4000130584361D362685EF10400BF2406244B4
:100A5000D24401450561828041111305453406C623
:100A6000EF106009B2403335A0003305A0404101CA
:100A7000828041111305453406C6EF102008B240AC
:100A80003335A0003305A04041018280797122D422
:100A900026D24AD04ECE06D6AA892E8932848144E7
:100AA0007D56FD569305F1004E855D3909C92685B1
:100AB000B250225492540259F24945618280034750
:100AC000F100B307990085042380E700E31A94FC42
:100AD0002285F9BF29C5411122C426C24AC006C6D3
:100AE0003289B684AE872A8491C53E858145EFF070
:100AF0003F85AA872322240104C41CC023260400A6
:100B000023280400232A0400232C0400232E04029B
:100B1000B2402244924402490145410182807D5500
:100B20008280011106CE22CC26CA4AC84EC652C4C3
:100B300056C25AC089ED7D542285F2406244D244A7
:100B40004249B249224A924A024B056182809C4541
:100B5000FDD3AA84BA8A368AB2892E84F53D61FD16
:100B60001309C40181454A85EF10C05D01C5268582
:100B70000937D1B785471CCC23260400232804005D
:100B8000232A0400138B043723A4842A5A85EF00F8
:100B90009076C1665686FD16D28513858436F1326D
:100BA0002A845A85EF0090754E85EF10F0712E86DD
:100BB000AA854A85EF10005F11C17D544A85EF1068
:100BC000C058268523A4042A6D35BDB7397106D6D1
:100BD00022D426D24AD04ECE52CC3AD83EDA42DC8B
:100BE00046DE99E9FD54B2502254268502599254AA
:100BF000F249624A216182802A84368AB289AE84AF
:100C0000A13D6DF11389C40281454A85EF108053DF
:100C100001C52285B93DF9B723A6040023A8040025
:100C200023AA040010182324942AD285228532C6D0
:100C3000D93301C52324042AE9BF4E85EF10D068BB
:100C40002E86AA854A85EF10E0553335A000B304FF
:100C5000A0404A85EF10604F22852324042A113DCD
:100C600059B7397106D622D426D24AD04ECE52CCAC
:100C70003AD83EDA42DC46DE99E97D542285B2500C
:100C8000225492540259F249624A216182809C4561
:100C9000EDD7AA84368AB2892E847D3B79FD13096B
:100CA000C40181454A85EF10E04901C52685D1334D
:100CB000E9B785471CCC2326040023280400232AF7
:100CC0000400101823A4842AD285268532C6253331
:100CD00001C523A4042AD9BF4E85EF10F05E2E86ED
:100CE000AA854A85EF10004C3335A0003304A0409C
:100CF0004A85EF108045268523A4042A9D3BBDBF6D
:100D000039715AD05ECE2E8BB28B81451306003CD2
:100D100022DC26DA2A844AD84ED662CC3AC63EC4B1
:100D200006DE52D456D266CA6AC8368CEFF04FE15E
:100D3000A24732479304042A2322F42A2320E42AD8
:100D4000A287854905493E85130600078145EFF0D6
:100D50002FDF23003501232A250593070507E39498
:100D600097FE8564138504C0EF00B023AA857D59E2
:100D700031C59309043A232EA43A138604C04E8544
:100D8000112A13050020EF00D02105C12322A4362B
:100D900013850480EF00F02029E1232C0432032581
:100DA0004436EF00B022232204360325C43B7D598C
:100DB000EF00D0214E85232E043A2122F2506254B6
:100DC0004A85D2544259B259225A925A025BF24B86
:100DD000624CD24C424D2161828093840480130A7C
:100DE0000439232CA432232E943223200434814549
:100DF0005285EF10203525E1930A04375685EF0020
:100E0000503439E5930C44346685EF00903315ED8A
:100E1000130D8436E2856A85EFF0EFEE2A891DE135
:100E20003716000081482688DE870947A286130608
:100E3000A681DA851305042BEF10407341D16A8532
:100E4000EFF02FF86685EF0010345685EF00B033D1
:100E50005285EF10802F0325843319C1EF0010173E
:100E6000232C0432232E0432232004340DBF4111DD
:100E700022C42A841305053A06C6AD2801E91305E4
:100E800004392244B24041016F108031B240224403
:100E90004101828005C5411122C406C62A8413057A
:100EA000C04489C9854613054400EF00106B19E161
:100EB00085471CC0B2402244410182801305C044D2
:100EC000828015C51441411122C406C605472A84F3
:100ED0001305E0446399E60013054400EF00106A2F
:100EE00019E123200400B24022444101828013050D
:100EF000C0448280011106CEA307B10011C9054686
:100F00009305F1001105EF007077F24005618280D2
:100F10001305C044DDBF011122CC06CE26CA4AC843
:100F20004EC652C401440DC5AA843289AE89EF2051
:100F300050302A8A01449104630989000546B3852B
:100F400089002685EF00907309CD5285EF20B02EE1
:100F50002285F2406244D2444249B249224A0561A4
:100F600082800504D1BF09C5014611056F00706676
:100F70001305C044828079714AD006D622D426D285
:100F80004ECE52CC56CA014915C52A84B2892E8A42
:100F9000EF20302AAA8A814411042689638934010A
:100FA00001469305F1002285EF00B06211CD568510
:100FB000EF207028B25022544A8592540259F249C7
:100FC000624AD24A456182800347F100B3079A0022
:100FD00085042380E700D1B751CD011126CA06CE82
:100FE00022CC4AC84EC652C4AA8419E25C45DD8DA3
:100FF000CCC4EF201024DC40AA89138A440003A942
:101000000700138407FB130909FB93070405638991
:10101000470383568407DC44785C93F52600032657
:1010200004088DCDF98F6311F70418C28545228518
:10103000EF00104683578407918B9DC723A60400B9
:101040004E85EF20501FEF102034F2406244D2440E
:101050004249B249224A014505618280858A89C692
:10106000F98F99C31CC2D9B7832709054A8413890C
:1010700007FB61BF1305C044828005C1411122C432
:1010800006C62A844CC51105EF00503B85471CC09D
:10109000B24022440145410182801305C044828050
:1010A000797122D426D24ECE52CC5AC85EC606D60C
:1010B0004AD056CAAA89AE84328AB68B3A8B3E840D
:1010C000EF100036631D050C638E090C630C0A0CCF
:1010D00093773400F9CB0D476389E70CEF20701547
:1010E000137724002A8983A7C9000DCBE58F639F5E
:1010F000F40223209A00118819C023A609004A850A
:10110000EF2070130145B250225492540259F24913
:10111000624AD24A424BB24B456182801377140037
:1011200011C7E58F81C72320FA00F1B7B3E76B0140
:1011300099E74A85EF2030101305004BE9B7EF100F
:10114000802D19C54A85EF20100F1305104B65BF80
:1011500003A581845E86DA869385490064DD2320B9
:101160004509231C8506EF0070364A85EF20B00C38
:10117000EF10802183A781842254B25092540259E7
:10118000F249624AD24A424BB24BA85723AE0706F5
:1011900023A00708239C070645616F00702C1305E8
:1011A000001995B71305C044B9BF1305800CA1BF42
:1011B00005461DB5011126CA06CE22CC4AC84EC628
:1011C00052C456C25AC09304C0440DC985C9AA84EA
:1011D000B68A32842E89138B4400EF2090052A8A28
:1011E0005A85EF00702615C51385C4002286CA856E
:1011F000EF00D048AA845285EF20F003F240624409
:1012000026854249D244B249224A924A024B05619C
:10121000828083A94400938409FB63950A0203A595
:101220000902CA852286EF603012854523A2890211
:101230002685EF00F0255285EF20E07F8144EF10F6
:10124000A0146DBF83A90900938909FB9387040546
:10125000E303FBFEA8582286CA85EF60F00E2685C0
:10126000E0D88545EF00D02283A70905CE84938975
:1012700007FBE9BF411126C206C622C49304C0443D
:1012800009CD2A843105EF00502DAA8419E51305F4
:101290004400EF00B01A85471CC0B24022442685A6
:1012A000924441018280797122D44AD052CC56CAEC
:1012B0005AC85EC606D626D24ECE2A8AAE8A328951
:1012C000B68B3A8BEF10C015130400190DE513040B
:1012D000C04463020A0263800A02EF208075AA8478
:1012E0004A86D6851305CA00EF00B02E2A8405E190
:1012F0002685EF2040742285B25022549254025920
:10130000F249624AD24A424BB24B45618280B3E70E
:101310006B0189EB232009002685EF20C07113049F
:10132000004BD1BFEF10200F19C52685EF20A0700C
:101330001304104BC9B703A581845E86DA86930532
:101340004A0023285507EF0070182685EF20A06E6D
:10135000EF10800383A78184A857EF0070102A84C0
:1013600059F983A78184F85B2320E90023A80706A5
:1013700023AA070649B7814635BD011122CC06CE06
:101380002A842EC632C436C2EF10800921EDB24540
:101390001305C0449DCD93F735001305F02B95EB55
:1013A00092461305E02B93F7360085E72246B38774
:1013B000D5002E8701451308F6FF6360050323203F
:1013C000070085474CC00CC450C810C854C41CC08A
:1013D0000145F2406244056182801CC305053E87D9
:1013E000B697E1BF13050019EDB721C1411122C421
:1013F00026C22A8406C6AE84EF20A0635C4881EF33
:10140000EF2060631305D02B23A00400B2402244D8
:101410009244410182801844FD1798C018435CC86B
:1014200018C4EF2040610145D5B71305C044828040
:101430005C411105F19B3E958280411122C406C694
:101440002A84FD3700C1B240224441018280B7A7FF
:101450000020B7A600201387074C1386064D23A053
:10146000074C23220700232407002326070010CF60
:1014700050CF23200702130507069387074C938656
:10148000064D1308000223220702BE85014623A24F
:10149000D50805069105E31C06FF11079387070889
:1014A000E313A7FE82804177698FAA8713050002A4
:1014B00019E3C2074145370700FF7D8F19E3A207F3
:1014C0006115370700F07D8F19E392077115370713
:1014D00000C07D8F19E38A07791563C307007D1566
:1014E00082805C45144537A700201307074CDCC6F3
:1014F00094C793975500B297938707028A07BA97C4
:1015000003A84700631DA802D4C3B7A70020938790
:10151000074D6396F602938685008A06BA96C842FE
:1015200085473396C7001346F6FF698ED0C201EA9D
:10153000B397B7000C5393C7F7FFED8F1CD382808E
:101540001DC19387F5FF3E95B305B040E98D138724
:10155000F5FFB707004001456377F700B1472E85D7
:1015600063F3F50031458280011122CC06CE93074A
:10157000F0072A8463EBA70013542540014588C176
:1015800000C2F24062440561828032C62EC4213F0F
:101590009307A5FF3354F440134404026515324603
:1015A000A245F1BF011122CC2A84484170002C00D1
:1015B000719906CE553F3246A24522851D37F2402D
:1015C000624405618280411122C406C626C22A8473
:1015D00085355C41858B99CBAA84E937DC4058403E
:1015E0002285F19B1107BA975CC0813D2285B240EC
:1015F0002244924441018280011122CC2A84484134
:1016000070002C00719906CE8537A246B24537A7E7
:10161000002093975600AE97938707021307074C55
:101620008A07BA97C84337A600201306064D08C498
:1016300050C440C51053C0C385473395D700A10699
:101640008A06498E10D336975443F2406244B397CA
:10165000B700D58F5CC305618280011106CE22CC14
:1016600026CA02C402C601E901442285F24062444E
:10167000D244056182809307F0072A8463F9A700AA
:101680001D3569158547B397A700FD173E94228540
:1016900070002C00D13D2244DD47E3C787FCB7A48E
:1016A0000020130784009386044C0A0732453697BE
:1016B0005843FD573395A700798D9384044C0DE56D
:1016C0008850050433948700698C59DC33058040C9
:1016D000618D814719C1C13BAA871384F7FF9D071C
:1016E0008A07A697C84322C4B307A0407D8D014650
:1016F00019C1553B2A867D16160432941304040240
:101700000A042694404032C62DD0A2452285D13B02
:10171000A9BF411122C45C41138445002A9458405A
:10172000F19B8D8F0D8BF11706C6D98F5CC05C4184
:101730008D8BCD8F5CC1228509335C41B24093E72C
:1017400027005CC15C40228593E717005CC02244FF
:101750004101828029C55841411122C406C626C2D2
:10176000719B938705012A84636CF7005D37AA8417
:101770002285E131DC40268593E72700DCC0AD3DC2
:1017800022857D315C41B2409244F59B5CC15C4056
:1017900013058400F99B5CC022444101828001450D
:1017A0008280B707004063E1A7020111914506CE90
:1017B000413B2AC65D3509C5B245F240056159BFB6
:1017C000F2400145056182800145828021C94111B5
:1017D00022C4130485FF26C2AA84228506C6B13915
:1017E0005C4193E727005CC15C4093E717005CC055
:1017F000898B91CF83A484FF26856D335C40D840CC
:101800002685F19BBA979107DCC00539268422858D
:101810005D3B2244B24092444101F9BB82800111F8
:1018200022CC37A400208326044C06CE26CA4AC800
:101830004EC68D47638DF6061307044C8147130986
:10184000044C63C0D706E11513773500F19993076F
:10185000003221E337070040938645FF5117930775
:1018600010326368D70293E515009309C5FF0CC1D8
:10187000AA844E8551334E85C93689475CC183277A
:10188000044C138717008A07CA97C4C32320E44C6B
:101890008147F2406244D2444249B2493E850561E3
:1018A0008280110710436307C500850759BF93075E
:1018B0002032C5B793073032E9BF011106CE2AC6E0
:1018C0002EC47136A2453245F240056189BF5C4D98
:1018D000184D011126CA4EC606CE22CC4AC804496C
:1018E0005CC398C3232805002306050003C904062A
:1018F000A949630F3901CA852685EF00306323802B
:101900003407F2406244D2444249B24905618280C0
:101910008345450183C714022A84E384B7FE2685E4
:10192000EF00D060230A2401E9BF411122C406C69A
:101930002A84713F130544002244B240914541017D
:10194000E1AE411122C406C62A84EF00702D0DE9D4
:101950001305C04415C013054400CD24A947230A2C
:10196000F400930784011CCC5CCC8547230604005B
:10197000232804001CC00145B2402244410182805A
:1019800013050019D5BF411122C406C626C24AC09C
:101990002A84EF00F02831E51305C0440DCC18402F
:1019A00085471305E0446318F702EF20800893048D
:1019B00044002A898D45268585261C4899C32285A1
:1019C00039372685BD2C4A8523200400EF20A00648
:1019D000EF00901B0145B24022449244024941016C
:1019E000828013050019C5BF011122CC4EC652C416
:1019F00006CE26CA4AC82A842E8AB289EF0050220F
:101A00006315050E6306040EEF20A0028347C40091
:101A10002A899DEF83A781841CC803C71702230A64
:101A2000E40005472306E400B44F13078401D8C23D
:101A300014CC9386870554CCB8CFEF10D07F0145E6
:101A4000F2406244D2444249B249224A056182804E
:101A50000848EF00901E15C58347C4001307F00F18
:101A60006398E7004A85EF10107D1305A03EC9BFBB
:101A700085074A852306F400EF10F07B1305903E9E
:101A8000C1B7B3673A0199E74A85EF10D07A1305D9
:101A9000004B7DB7EF00301819C54A85EF10B079BB
:101AA0001305104B71BF83A78184084883C51702B3
:101AB0008347150263F4F500EF00504703A58184C6
:101AC0005286CE869305440011244A85EF10B076E5
:101AD000EF00900B83A781846244F240D2444249D4
:101AE000B249224AA8570561A5AA1305001989BF62
:101AF0001305C044B1B7FD557D56FDB5011122CC8B
:101B000006CE26CA4AC84EC62A84EF00701145E99F
:101B10001305C04409CCEF10D0712A890848EF00A2
:101B2000D01109ED4A85EF1010711305803EF24087
:101B30006244D2444249B249056182808347C4006D
:101B4000FD1793F7F70F2306F40099C74A85EF10A6
:101B5000906E1305903EE1BF2285953B93094400AA
:101B60004E85DD2011C54A85EF10F06C0145C1B7E7
:101B70004E856D2008C883471502AA84230AF40005
:101B800085472306F400384D930784015CC318CCC5
:101B90001307850558CC3CCD4E85AD2083C7140274
:101BA000AA856375F5002685EF00503885454E857A
:101BB00085224A85EF103068EF00007D45BF130590
:101BC0000019B5B79C41938707FB1387070563147A
:101BD000B7002E8739A00346150283C6170263712A
:101BE000D602F44B13060505F0CB38C974C990C270
:101BF000834705026CD193E727002300F50282801A
:101C0000BC4BD1B71C416309F500138707FB29457D
:101C100009C703C517FD8280294582800841130545
:101C200005FB82807C4938495CC398C38347050221
:101C300023220506F59B2300F502828008C148C1D6
:101C4000828008C148C182801C413385A74013357A
:101C500015008280784934496C51D8C214C39DB7AD
:101C600085476305F50209479307304B630EE5008E
:101C70000D479307404B6309E50011479307504B0D
:101C80006304E5009307204B3E8582808147EDBFCA
:101C9000411122C406C6834705022A84898B99C351
:101CA0002CD5493783470402858B81C72285EF00F5
:101CB000F04983470402918B91E722852244B24088
:101CC000410181A6B240224441018280011136C403
:101CD00006CE22CC26CA2A842EC6B2842D2EB24528
:101CE000232404062285F93DFD57A2466394F4009F
:101CF000638B960022856244F240A685D2443686E4
:101D000005616F00B037F2406244D24405618280C1
:101D10000841130505FBADBF1C41411122C480439E
:101D200026C24AC0AA8406C62E89138507FB13045F
:101D300004FB930705056398F400B24022449244E3
:101D4000024941018280CA85A1373C48228513841B
:101D500007FBC5B711E26DBFC1B7AA871305C04421
:101D600089CF81CD0547CCC794CBD0CB98C323A2D4
:101D7000070023A40700014582808280AA870DC541
:101D8000144105471305E0446392E60223A00700CF
:101D900023A2070023A4070023A6070023A8070007
:101DA00023AA0700014582801305C04482804111A7
:101DB00022C406C6014409C92A84EF109047004492
:101DC00013341400EF1030472285B2402244410101
:101DD000828025CD011122CC06CE26CA4AC84EC625
:101DE0002A841305C04491CDB2842E89EF1070442B
:101DF000AA8922856D3F09CD4E85EF10D04313058A
:101E0000D05DF2406244D2444249B24905618280C9
:101E10001048835744004C444A85B387C702BE9597
:101E2000EF50905299C01C489CC0835744005848BA
:101E30004E858507B3F7E7022312F4001C44FD1713
:101E40001CC4EF10503F01456DBF1305C044828094
:101E5000411122C406C626C2014419C9AA84EF1042
:101E6000503DDC4880441D8C13341400EF10B03C0E
:101E70002285B24022449244410182802DC9011141
:101E800022CC06CE26CA2A841305C0449DC11C4814
:101E90001305E05D639FC7002EC6EF109039AA843A
:101EA00022857D37B24519C92685EF10D038130534
:101EB000C05DF2406244D24405618280104883577D
:101EC00064004844B387C7023E95EF50F0478357FC
:101ED0006400584826858507B3F7E7022313F4000A
:101EE0001C4485071CC4EF1010350145D9B71305F4
:101EF000C044828093575500D1073727002013072D
:101F000087468A07BA971346F5FF8546B396C600FB
:101F10009043D18E94C3834747056374F500230A29
:101F2000A7048280B7270020138787468347470589
:101F30008E07BA978843130505FB82803727002058
:101F400093078746A946238AD704130787469386B3
:101F500007059CC3DCC3A107E39DF6FE2328070405
:101F60008280011122CC26CA4AC84EC606CE2A89D2
:101F700003451502B727002093848746931935003F
:101F8000CE949840138487466393E400A537B30743
:101F90003401944313070905F2406244D8C2232A4E
:101FA00099042328D90498C3D2444249B24905610F
:101FB0008280011122CC26CA4AC84EC606CE2A8982
:101FC00003451502B72700209384874693193500EF
:101FD000CE949840138487466393E400213FB3076F
:101FE0003401D84393060905F2406244232899043A
:101FF000232AE904D4C314C3D2444249B249056137
:10200000828083A781840347150283C71702631365
:10201000F70045B7B9B7411122C406C626C22A84C3
:10202000292125E97C48384803461402B7240020BA
:102030005CC398C31387844693173600BA979843B6
:10204000938484466311F70293575600D1078A0799
:10205000A69785461347F6FF3397E6009443134748
:10206000F7FF758F98C383C744056394C702B727EA
:10207000002001449387874B31A01304040213749A
:10208000F40F9107884375D9EF10F0262295238A23
:10209000A404B24022449244410182803DC5011112
:1020A00022CC26CA2A844AC806CE4EC6AE84EF1079
:1020B00050180357C4008357E4002A89631DF700B2
:1020C000EF10701713058070F2406244D244424909
:1020D000B24905618280930944004E85EFF0DFB676
:1020E00019C98357C4004A8585072316F400EF10E9
:1020F00090140145D1BF268685454E85EFF09FC5DA
:102100004A85EF1050134924EDB71305C04482806F
:102110001DC5411106C622C4AE876373B600B287DF
:102120002316F5002A842317C5001105EFF01FB10F
:1021300085471CC0B24022440145410182801305FD
:10214000C044828041667D16E1B739C51441054718
:102150009307E0446394E604411122C42A8406C62E
:1021600026C24AC093044400EF10B00C8D452A8962
:102170002685EFF07FBA2685EFF0BFAC4A85232095
:102180000400EF10500B0924B240224481479244CE
:1021900002493E85410182809307C0443E8582808A
:1021A0008145EDBD011122CC4EC652C406CE26CAD1
:1021B0004AC82A842E8AB289A52435ED41C0EF1081
:1021C00050078357C4002A8999CFFD172316F400BE
:1021D000EF1070060145F2406244D2444249B249D0
:1021E000224A05618280B3673A0191E7EF10B0049B
:1021F0001305004BCDB7052419C54A85EF10B00370
:102200001305104BC9BF03A581845286CE86930562
:102210004400EFF0BFAB4A85EF10F001B52283A771
:1022200081846244F240D2444249B249224AA857CA
:1022300005616FF0FFA21305001971BF1305C044BB
:1022400059BF011122CC26CA4AC84EC606CEAA845E
:102250002E84EF0010052A89AE89EF009004B307A1
:1022600025413335F500B3853541898DE3E785FE9A
:102270006314B400E3E397FEF2406244D24442495F
:10228000B2490561828001A003A701858547631BD0
:10229000F70083C7C1849306900F63E5F6008507B6
:1022A0002386F184828003A7018585476316F7049E
:1022B000411122C406C6EF10C07783C7C1842A84A7
:1022C00091E72244B24041016F10E076FD1793F789
:1022D000F70F2386F184F5F783C78185FDF3EFF0CF
:1022E0007FC423AAA18483A781846314F500228577
:1022F000C9BFEF10C074E5BF828083C7C1841305D6
:102300000019A9E303A7018585471305401F631B37
:10231000F702411122C403C7818506C69307900FB7
:102320001305802563ECE700EF10A07083C781855B
:102330008507238CF184EF1000700145B2402244E0
:10234000410182808280411122C483A7018526C277
:1023500006C685441305501F638D9700EFF09FBCA0
:1023600023AAA18423A4A18423A89184EF10606DE3
:102370000145B240224492444101828003A5018577
:102380007D1513351500828003A701858547631FDE
:10239000F70283C7C18403C78185D98F85EB4111BB
:1023A00006C622C4EF10E0682A84EFF0BFB723AA64
:1023B000A18483A781846318F50022852244B2405A
:1023C00041016F104067EF104067C5BF828083C72F
:1023D000C184130500199DEF03A7018585471305E7
:1023E000401F6319F702411122C483C7818506C6C5
:1023F0001305506A81CFEF10C06383C78185FD1735
:10240000238CF184EF10206341370145B240224410
:1024100041018280828003C581853335A00082809E
:1024200003C5C1843335A0008280B7B700209387ED
:1024300087341D8D13351500828083A781843385F1
:10244000A74013351500828003A8C18283A781822B
:1024500037260000B7A5000037B500208148254782
:10246000814613066628938545E413058534FDA847
:10247000411106C6EF10205FEFF05FAC372500205A
:10248000A1651305054CEFF04FC319E5753F09E54C
:10249000B24041016F00007FB240410182800111D2
:1024A00022CC4AC82A844EC606CE26CAEF106058EF
:1024B0003C4C13098405AA89631BF908834704026D
:1024C00081E72285EFF03FB583470402858B99C3EE
:1024D0002285AD2983470402898B81C72285EFF0CD
:1024E0006FF41C5C58584E855CC398C39307C402B4
:1024F0005CD41CD8930744035CD81CDC9307840489
:102500003CC47CC4930704053CC87CC8A94723008D
:10251000F406A147232C2405232E24052300F402CE
:10252000232204002324040623220406232604066F
:1025300023280406232A0406EF10E04FB135F240A9
:102540006244D2444249B2490145056182808443D4
:10255000138587FEA11493078501E301F9F6EFF0D7
:10256000CFBC9C4C2685938487FEF5B7011122CC05
:1025700026CA4AC84EC652C456C25AC006CE2A847B
:102580002E8B3289B68ABA84BE89428A513D631D38
:10259000050E1305C04471C46305090C6383090C5F
:1025A0009307F0071305407763FD470BA547639436
:1025B000F40C22859D3D71C19307C4025CD41CD8E4
:1025C000930784043CC47CC4930704053CC87CC8BE
:1025D000930784053CCC7CCCA9472300F406B707BD
:1025E000002083A6872513074403232404062322FF
:1025F00004062326040623280406232A0406D8C238
:1026000023ACE72454D837260000938687258547D6
:102610005CC0528714DC1306866ECE86D6854A854A
:10262000EF10C0473D46DA8508C0A3009402232C72
:102630002401232E540123223403232444031305AD
:102640008400EF60A01BEF10C03EAA8423000402A8
:102650002285EFF01F962685EF10E03DEFF01FD2A8
:1026600005E1F2406244D2444249B249224A924AC8
:10267000024B05618280E3F197F41305F076D5B73C
:10268000EFF09FD00145F1BF13050019D9BF4111EB
:1026900022C406C62A84EFF0BFD815ED19E003A4C2
:1026A00081842285EFF07FD90DE1584085471305DD
:1026B000E0446314F7022285EFF03FD71DE1228545
:1026C0002244B24041016FF09FDDEFF0DFD471DDB5
:1026D0001305406A19A013050019B24022444101B4
:1026E00082801305D076D5BF014555B7411106C686
:1026F00022C426C2EFF0DFD20DE5EF108033AA84AA
:1027000003A58184EFF03F9103A58184EFF07F8AD8
:102710002685EF1040322244B240924441016FF0CE
:10272000BFC6B2402244924441018280011122CCB2
:102730004EC606CE26CA4AC852C456C22A84AE899C
:10274000EFF01FCE61E11305C04415C0A14713058A
:10275000F07663EE3701EF10C02D83471402AA8A8A
:1027600063903703EF10202DEFF01FC20145F240B8
:102770006244D2444249B249224A924A0561828067
:10278000244C130A8405631F9A004E898347040270
:1027900013F7270021C3A30024032285EFF08FCB7A
:1027A0005685C9B7A1142949938784016317FA0094
:1027B000E37D39FD23003407D1BF13854400EFF0DA
:1027C0006FC4AA876373A900CA87844C13F9F70FF3
:1027D000A114D9BF13F7170001C7A3002403C9B779
:1027E000E1F32285EFF03F832285A3002403EFF07D
:1027F000DFC409C52285EFF0CFF65DB72285EFF083
:102800004FFB79BF130500199DB7011122CC26CAD1
:1028100006CE4AC84EC62A84AE84EFF07FC0930726
:10282000001901EDEFF03FBF9307406A19E5B36768
:10283000940081EFEFF09FEB8147F2406244D24475
:102840004249B2493E8505618280FD576316F40016
:1028500093075006E38384FEEF10A01DAA8903A509
:102860008184A2852686192803A58184EFF0AFFA1A
:102870004E85EF10401CEFF03FB17DBF011122CC1F
:102880002EC62A8432C406CEEF10A01A83A7018177
:10289000B2452246938787FB2CC070C08146014712
:1028A00013830181138E870463136E06B388D540AA
:1028B000B3BE15013308E6403308D8412320140580
:1028C0002322040563016E02B385B640B3B6B60099
:1028D000118F158FB443F043B695B3B6D500329738
:1028E0003697ACC3F8C3F84793068404F4C723248F
:1028F000C40578C414C3EF10001483470402F240E7
:1029000093E717002300F40262440561828083A8E4
:10291000070483AE4704B69833B8D800BA9E7698B9
:10292000E36606F96314C800E3E215F9639A15013A
:1029300063180601034F140283CE1702E368DFF722
:10294000BC47C6864287938787FBA9BF411122C433
:1029500006C62A84EF10E00D3C4413078404638804
:10296000E704138787FB21C7138701816381E7048D
:10297000344083284404F9553383D54003A6C7FF68
:1029800033B8650093C5F8FFB385054103A787FFFA
:1029900063EDC5026314B6006369E302BA9633B708
:1029A000E6004696329723ACD7FE23AEE7FE784486
:1029B000D8C31CC3EF10200883470402B240F99B20
:1029C0002300F4022244410182807956FD5623AC53
:1029D000C7FE23AED7FEE1BF011122CC26CA2A844E
:1029E0002EC606CE4AC8EF10C00483A7018683A670
:1029F0004186B24533868700B337F600AE96B69768
:102A000023A2F18683A7018123A0C186938401813B
:102A1000639997006244F240D244424905616F10C5
:102A2000800103A7C7FF2A8983A687FF138587FB39
:102A300063EFE5026314B700636BD4028043814601
:102A4000014723ACD7FE23AEE7FE130484FB9307B4
:102A50008504638897023C417841D98F9DE389457D
:102A6000EFF00FA33C442285138487FBCDB733845A
:102A70008640B3B686000D8F158F23AC87FE23AE3C
:102A8000E7FE4A8541BF411106C6EFF03F8F19C5E9
:102A9000054581459137B240410105A2B24041014F
:102AA0008280411106C622C426C2EF00907803A49A
:102AB000018683A44186EF0010782285B24022442B
:102AC000A6859244410182808145828081456FF0D4
:102AD000DFD3411122C406C62A84EF009075B707E0
:102AE00000201387070010484C441447D0C11387B7
:102AF00046FF0CC2631F870098423E866305D700DD
:102B0000930647FF81EE7D57FD572320E6002322E1
:102B1000F6002244B24041016F00F0715047144B5F
:102B200023A0C70023A2D700EDB7411122C406C6D7
:102B30002A84EF0010701C4C03A60186584C83A613
:102B400041863E96B337F6003697B70600203E978B
:102B5000938706009C47B705002010CC58CCD117AE
:102B600013830600938585009388C700639AB80293
:102B700003A807019305C4008CCB23261401232846
:102B800004012320B800832783006396F50023A067
:102B9000C60023A2E6002244B24041016F00B069A2
:102BA00003A8C701E36607FD6316E80003A88701D1
:102BB000E36006FDDC47D11745BF011122CC26CAD0
:102BC000370400200327440083A7418606CE4AC865
:102BD0004EC652C456C263EEE7086318F7000327D7
:102BE000040083A7018663E6E708EFF00FF1130402
:102BF00004001C44B70900209389890003A9070039
:102C0000138447FF094A51198D4A9307C400639CF6
:102C100037016244F240D2444249B249224A924AC0
:102C200005616FF0CFFA584C83A74186E3E3E7FED6
:102C30006317F700184C83A70186E3ECE7FC2285B5
:102C4000EFF03FE9835704036392470318545C5441
:102C5000228518CC5CCCEFF05FED5C4008444A84E0
:102C600082978327C900138947FF45B7232A540356
:102C7000EDB7F2406244D2444249B249224A924AF4
:102C80000561828001458280411126C2AA8437A550
:102C900000001305C5E406C622C4EF50501437A443
:102CA0000000130584E5EF50901337A50000A685BA
:102CB000130545E9EF50E07D37A500009385040436
:102CC000130505EAEF50E07C130584E52244B24089
:102CD000924441016F50B010317113066006814576
:102CE000281806DF22DD26DB4AD94ED752D5EFD091
:102CF0002FE50945EF00B04063590500AA8537A5C7
:102D000000001305C5ECEF50C078B7A5000037A54B
:102D10000000938505F01305C5F0EF00F03637A4E9
:102D200000002946930544F12818EF40F061B7A44C
:102D3000000013060004938504F213053104EF50DC
:102D4000F02BB7A500006546938585F24801EF405A
:102D5000B05F85452818EFD07F96A96541469385D9
:102D600085DE2810EF40505E41462C100808EF40E9
:102D7000B05D0808EFD0DF956308050E37A50000A9
:102D8000130545F4EF50B0054810EFD03F9CFD57B8
:102D90006300F50212578547630DF70CB7A50000D5
:102DA0009385C5EB37A50000130585F7EF50606EDE
:102DB0003729002037A60000130646F89305A0081F
:102DC000138704F2930644F113050994EF5010059C
:102DD00037360000130686C8814513050994EFD0E5
:102DE000FF9149CD37A50000130505FAEF50207F6C
:102DF000372900201306A00881451305C99CEFD090
:102E00002FD437A60000138704F2930644F113056C
:102E1000C99C130606FD9305A008EF503000856499
:102E200081469384843837290020B7A90000130A0B
:102E30004006268536C6EFF07FC91306001081458F
:102E400013050984EFD0CFCFB2461386C9FE930590
:102E500000101384160013050984EF50207C63537F
:102E60008A000144A286F1B737A500001305C5F515
:102E700011BFB7A50000938505EB2DB737A500005E
:102E8000130585FBA5B7411106C6EFF0FFE41D71E0
:102E9000B7A600002AC62EC4938686220146814525
:102EA000080886CEEFD01FC3B2472247B7A600005E
:102EB00037B500200C089388C7041388B7009386A1
:102EC000C6231306007D13050542EFD09FD9025596
:102ED000F64071153335A0003305A040256182808E
:102EE0001D71B7A600002AC62EC432C29386462A98
:102EF00001468145080886CEEFD0DFBD1248A247C3
:102F00003247B7A60000056637B500200C08938647
:102F1000462B130686BB13050542EFD09FD40255FE
:102F2000F64071153335A0003305A040256182803D
:102F30001D71B7A600002AC62EC4938646330146EB
:102F40008145080886CEEFD0FFB8A2473247B7A622
:102F5000000037B500200C08938646341306007D28
:102F600013050542EFD0FFCF0255F64071153335FA
:102F7000A0003305A040256182801D71B7A6000026
:102F80002AC69386C63501468145080886CEEFD00D
:102F90007FB43247B7A6000037B500200C089386EF
:102FA000C6361306007D13050542EFD09FCB0255B0
:102FB000F64071153335A0003305A04025618280AD
:102FC0001D71B7A600002AC62EC49386463E014650
:102FD0008145080886CEEFD0FFAFA2473247B7A69B
:102FE000000037B500200C089386463F1306007D8D
:102FF00013050542EFD0FFC60255F6407115333573
:10300000A0003305A040256182805971B7A6000059
:10301000A2D4CAD02A849386062601468145080890
:103020000969A6D2CECED2CCD6CA86D6AD44EFD0D0
:103030007FAAB7A900001309097137BA0020914A85
:10304000FD1499E87D55B650265496540659F64914
:10305000664AD64A656182808347D4008348C400AB
:10306000032884003EC018405C40938609274A86A6
:103070000C0813050A42EFD0DFBE82576388570160
:1030800081451305803EEFF04FF85DBF014565BFF8
:103090005D718146014681450A8586C6EFD09FA3B2
:1030A000B7A6000037B500208A8593860629130647
:1030B000803E13050542EFD07FB14245B6407D15F5
:1030C0003335A0003305A040616182801D712AC69E
:1030D000814601468145080886CEEFD0BF9F324722
:1030E000B7A6000037B500200C08938646211306CA
:1030F000803E13050542EFD07FAD0255F6407D15A9
:103100003335A0003305A040256182805D71814682
:10311000014681450A8586C6EFD0DF9BB7A6000031
:1031200037B500208A85938686441306007D1305F3
:103130000542EFD0BFA94245B6407D153335A0000A
:103140003305A040616182801D71B7A6000093869F
:10315000062DA2CC2AC632842EC401468145080819
:1031600086CEA6CAEFD01F97B7A500009385051E8F
:103170002285EF50C0622285EF506064A24732473B
:10318000B7A60000B7B400201308E5FF9386462DCC
:103190001306803E0C0813850442EFD09FAC025703
:1031A00091477D55631EF702B7A600009386062F50
:1031B000014681450808EFD0FF912285EF5020603D
:1031C00005662A87A286130686BB0C08138504426F
:1031D000EFD03F95025571153335A0003305A0405F
:1031E000F6406644D64425618280357122CD814601
:1031F000130600048C082A84080806CF26CBEFD0DB
:103200007F8DB7A6000037B50020938606301306E1
:10321000803E0C0813050542EFD05F9B8254854722
:103220006388F4007D55FA406A44DA440D61828077
:103230004245B7A5000093854531EF50605E7DD1D2
:10324000B7A50000700093854532EF502044324509
:1032500001E523200400C1BFE31695FC08C0014529
:10326000D9B7357126CBB7B4002022CD05462A84C4
:1032700081451385043D06CF02C202C42316010016
:10328000EFE01FE949E5FD557D561385043DEFE06C
:103290007FF1B7A600009386C639130600048C0898
:1032A0000808EFD03F83B7A6000037B5002093860B
:1032B000863A1306007D0C0813050542EFD07F9A6D
:1032C000025791470145631FF702B7A50000130796
:1032D0000401540022869385853B8808EF50003B0B
:1032E00001478147A94650003A960346060009CA9D
:1032F000B387D7020507938707FDB297E315D7FE7B
:103300005CC40145FA406A44DA440D6182807D550F
:10331000D5BF397126DAB72400204AD81306001425
:1033200081451385043037B9002022DC4ED652D4B3
:1033300056D25AD05ECE06DE0144EFD06F80CA89E5
:10334000930A2002130BC002930BF003138A04307C
:1033500005469305F10013050942EFD02FF3854789
:103360006310F50A8347F100E38457FF638A67011E
:10337000E3C08BFE33078A002300F7000504C9BFB2
:10338000372900209307000413090930631CF40255
:10339000A30F09020144930AC002294A0546930576
:1033A000F10013850942EFD06FEE8547631AF504EB
:1033B0008347F100638C570133044403938707FD6F
:1033C0003E94E9BF4A9423000400E9B79307001034
:1033D00063F487001304001009042286930509048E
:1033E00013850942EFD08FEA631CA4003725002023
:1033F000130600149385043013050544EFD0BFF77E
:10340000F2506254D2544259B259225A925A025B33
:10341000F24B21618280797137B5002035466C000E
:103420001305054206D6EFD06FE6B5476310F502E7
:10343000B7A500009385C5406800EF50603E19C5F0
:1034400037B500201305053DEFE09FD5B25045612B
:103450008280797126D2B7B4002022D44AD04ECED1
:1034600052CC06D656CA5AC80144268A9309C002CD
:10347000294905469305F10013850442EFD00FE179
:1034800085476311F5068347F10063973707930A71
:103490000008B729002037BB0020A28463F48A000B
:1034A00093040008C204C1802686938589A513056C
:1034B0000A42EFD0AFDD2A89631695022A869385EA
:1034C00089A513050B3EEFD01FA5635DA000330453
:1034D00024414204418071F037B500201305C53FF7
:1034E000EFE01FCCB250225492540259F249624A82
:1034F000D24A424B4561828033042403938707FDFF
:103500003E9442044180B5B71D71A2CC37B400206F
:1035100081451305C44086CEEFD03FB611C57D5519
:10352000F64066442561828081460146814508084F
:10353000EFD04FDAB7A6000037B500209386464398
:103540001306007D0C0813050542EFD02FE8025743
:103550008547E316F7FC9547FD567D5770008D456E
:103560001305C440EFD0DFB35DF932457D15333527
:10357000A0003305A0406DB71171A6DB130640060D
:103580008145AA84680186DFA2DDEFC07FDB1306D8
:10359000300281452810EFC0BFDA8146130640068D
:1035A0006C01E80002CA02CC02CE02D002D2EFD0F7
:1035B0006FD2B7A6000037B50020EC009386460511
:1035C0001306007D13050542EFD04FE0F645854711
:1035D0006380F50237A50000700113050506EF4072
:1035E000506BFD57FE506E54DE543E851161828053
:1035F0003644B7A50000938505082285EF50402288
:10360000FD576DF1B7A50000938585082285EF5021
:10361000202101E937A5000013050509EF40307CA2
:10362000C9B7B7A500001C0878005408301093856E
:10363000050A1D05EF50800591476307F50037A582
:1036400000001305450BD9BF4247B24637A500001D
:1036500050082C101305C50CEF40B063C2479CC046
:10366000814749B71D71A6CAB7B40020A2CCCAC809
:103670002E842A892E86AA851385043E86CECEC640
:10368000EFD05F8109C97D55F6406644D64446496E
:10369000B64925618280B7B900200546814513856A
:1036A000C93FEFE0FFA665F18146014681450A85E5
:1036B000EFD04FC2B7A6000037B50020228793860F
:1036C00046381306C0128A8513050542EFD00FD085
:1036D00042478547E319F7FAFD557D561385C93FE3
:1036E000EFE05FAC2286CA851385043EEFD0BF8829
:1036F00061BF411122C437B50020372400201306D2
:103700007002930584AD1305054206C626C2EFD0AC
:10371000EFB793077002631BF502B7A5000093850E
:10372000C541930484AD130584ADA3830402EF5017
:10373000200FB7B70020854511E189452244B240EA
:1037400092441385C74041016FD09FA6B2402244E6
:1037500092444101828037A500001D711305C50FF9
:1037600086CEA2CCA6CACAC8CEC6D2C4EF403067A5
:10377000B7A6000093864612014681450A85056971
:10378000EFD04FB5AD44B7A900001309893837B45D
:103790000020114AFD1491E437A500001305451ED1
:1037A000A9A09386C9124A868A8513050442EFD0E0
:1037B0004FCBC247E39047FF8146014681450A85CA
:1037C000EFD04FB1B7A600009386C61D1306803E0A
:1037D0008A8513050442EFD06FBF42478547630ACD
:1037E000F70037A500001305C513EF40505F7D5566
:1037F00061A08146014681450A85EFD0AFADAD4459
:1038000037A900008549FD1491E437A50000130590
:10381000051CE1BF930689151306803E8A851305B2
:103820000442EFD0AFBAC247E39F37FD814601465D
:1038300081450A85EFD00FAAAD44B7A9000005491C
:1038400031A80147938689161306803E8A851305A1
:103850000442EFD0AFB7C24763892701FD14F5F0EA
:1038600037A500001305851749B737A500001305D4
:103870008519EF40D0560145F6406644D644464986
:10388000B649264A256182801D71A6CACAC8CEC61D
:103890002A89AE898146014681450A859D64A2CC6C
:1038A000D2C4D6C2DAC086CE2D44EFD0AFA237AA9A
:1038B000000093840453B7BA0020054B7D1401EC3B
:1038C0007D55F6406644D6444649B649264A964A4E
:1038D000064B25618280CE874A879306CA1F2686BB
:1038E0008A8513850A42EFD06FAEC24763876701AE
:1038F0001305007DEFF08F9DD1B70145D9B737078C
:103900000020AA8637260020B7A5000037B5002082
:103910004111914713070701130606B093854542ED
:103920001305054206C6EFD0AFBD01ED37050020F7
:1039300013050503EFC0BFCE09E5B24041016FC0DA
:103940003FCFB2407D554101828037F700E01C43F4
:10395000860785831CC3828037F700E01C43B706C7
:103960000080D58F1CC382806FF01FFFB7F700E087
:1039700023A0070023A20700814694C70147D8C7A8
:103980001306F5FF90CB8146D4CB3D4798C3828088
:103990001375F50FB7E700E02386A7408280B7E7ED
:1039A00000E041572387E740056723A0E710116730
:1039B00023A0E71082805D7182E686E48AE28EE0D1
:1039C00012FE16FC1AFA1EF82AF62EF432F236F01F
:1039D0003AEE3EEC42EA46E872E676E47AE27EE0CF
:1039E0008A8203A1818116C0EFE05F9919C9EFE0D7
:1039F000BF89B7F700E023A20700EFF0CF88EFE020
:103A00009F8A02413660A660166186617272E27218
:103A10005273C2733275A275127682767267E2674C
:103A20005268C268326EA26E126F826F616173005B
:103A300020306FC0AFFD6FC0CFFD6FF0FFF16FF0B2
:103A4000BFF2411106C6EFC02FFD411122C42A84E6
:103A50001305000F06C6EFF0BFF322852244B240E3
:103A600041016FF0BFF0138781811C43411106C6ED
:103A7000F117F19B1CC3B707002003A6072583A6F7
:103A8000472503A5C1818145EF10707F23A2A18442
:103A9000EFF0BFFBB24041016FF07FF03697719BB2
:103AA000B7E8EAAC2A8E130847F8130507F88546ED
:103AB0002943938808D0930E0002B3C76602110809
:103AC00033EF660292078506B3E7E701B3E7170114
:103AD000232EF8FEE393D6FF8E872326F7F8A167FF
:103AE000938707882324B7FA2324C7F82322F7F8FB
:103AF0002320C7F982804177698FAA87014519E39E
:103B0000C2074145370700FF7D8F19E3A207210552
:103B1000370700F07D8F19E392071105370700C0C2
:103B20007D8F19E38A07090563C6070099C3050558
:103B30008280090582807300203037A500005D7106
:103B40001305C54982E686E48AE28EE012FE16FC81
:103B50001AFA1EF82AF62EF432F236F03AEE3EEC5D
:103B600042EA46E872E676E47AE27EE0EF40302709
:103B7000EF109060AA8537A500001305854AEF4035
:103B80005011EF10D05FAA8537A500001305854BB3
:103B9000EF403010EF10105FAA8537A50000130525
:103BA000854CEF40100F01A01D71A2CE374400409C
:103BB000930550521305044082E686E48AE28EE0C3
:103BC00012FE16FC1AFA1EF82AF62EF432F236F01D
:103BD0003AEE3EEC42EA46E872E676E47AE27EE0CD
:103BE000EF10504509CD13050440EF105043937575
:103BF000F50F37B5002013050542EFD04FA77644E7
:103C00003660A660166186617272E2725273C27388
:103C10003275A275127682767267E2675268C26860
:103C2000326EA26E126F826F2561730020301D719B
:103C3000A2CE37240040930550521305048082E63B
:103C400086E48AE28EE012FE16FC1AFA1EF82AF6C4
:103C50002EF432F236F03AEE3EEC42EA46E872E6F4
:103C600076E47AE27EE0EF10F03C09CD13050480A3
:103C7000EF10F03A9375F50F37B500201305057E68
:103C8000EFD0EF9E76443660A66016618661727250
:103C9000E2725273C2733275A275127682767267BF
:103CA000E2675268C268326EA26E126F826F25613F
:103CB000730020301D71A2CE37240040930550526E
:103CC000130504C082E686E48AE28EE012FE16FC4A
:103CD0001AFA1EF82AF62EF432F236F03AEE3EECDC
:103CE00042EA46E872E676E47AE27EE0EF1090344B
:103CF00009CD130504C0EF1090329375F50F37B559
:103D0000002013050542EFD08F9676443660A660FA
:103D1000166186617272E2725273C2733275A27555
:103D2000127682767267E2675268C268326EA26E5D
:103D3000126F826F2561730020305D71054582E648
:103D400086E48AE28EE012FE16FC1AFA1EF82AF6C3
:103D50002EF432F236F03AEE3EEC42EA46E872E6F3
:103D600076E47AE27EE0EF10700E19C1EF003013B6
:103D70000945EF10B00D11C50945EF10300FEF00E8
:103D800010121545EF10900EEF10D0073660A660A8
:103D9000166186617272E2725273C2733275A275D5
:103DA000127682767267E2675268C268326EA26EDD
:103DB000126F826F61617300203001114AC84EC6D4
:103DC0003689B289FD167D16C2064206C18241823D
:103DD00022CC52C456C206CE26CA2A8A2E84BA8A59
:103DE000E52963662403F2406244D2444249B24961
:103DF000224A924A0561828085045685C20469215F
:103E0000C180E3EB34FF050442044180D9BFD28472
:103E1000CDBF411122C4AE8632842A8606C66D29E2
:103E200022852244B240410185A1397126DA4AD85F
:103E30005AD05ECE66CA06DE22DC4ED652D456D2A8
:103E400062CCB304A6402A8BAE8C3389B640854B36
:103E500063479000814B81C4B304C540FD5B054CB2
:103E600063482001014C630509003389D5407D5C1E
:103E7000268463D324014A84814A014A8149635FCD
:103E80003401F2506254D2544259B259225A925AD1
:103E9000025BF24B624CD24C2161828093950C0103
:103EA00013150B013A86C18141813AC6269AEFF07B
:103EB0005FF6CA9A324763554401330A8A405E9BD3
:103EC00063555401B38A8A40E29C8509C20993D99B
:103ED000090175B739716EC6B30DC6024AD84ED600
:103EE00052D456D25AD006DE22DC26DA5ECE62CC1E
:103EF00066CA6AC8AA8A2E8BB6893289014A131407
:103F00000A0193140901C1804180B38B9A40330C9C
:103F10008B40C20B420C135C0C0193DB0B01E2855E
:103F20004E865E85338D5401EFF0BFEE420DE28583
:103F3000135D0D01338C8A40B38C64014E866A8513
:103F4000420CC20CEFF0FFEC135C0C0193DC0C0193
:103F500062854E86E685B3049B40EFF09FEBC2047A
:103F60006285C180330C8B004E86A685420CEFF033
:103F70005FEA135C0C0156944E86E2856A85420422
:103F8000EFF03FE941804E86A6852285EFF07FE87D
:103F90004E86E6852285EFF0DFE74E86E2855E8578
:103FA000EFF03FE7050AB3074A0333072903BA973F
:103FB00063D3FD007D19E35449F5F2506254D254A5
:103FC0004259B259225A925A025BF24B624CD24C7D
:103FD000424DB24D216182805971CAD013D9170068
:103FE0003AD213777900A2D436C632849396070169
:103FF00013D647003337E0003297C182DAC83E8BD0
:10400000B387E6021306F5FF1387F5FFBA964A96C3
:10401000C20642064182C182A6D2CECEDEC6E2C42C
:10402000E6C2EAC06EDEAA893ECA86D6D2CCD6CA1D
:10403000AE8442D45524130604FE1376F60F93176C
:104040006600130700033ED0B307E6023147AD6BAD
:104050002D6CA96C4E8D814D0144938BCBF3130CC9
:10406000CC943ECE931746003ECCB307E602938C29
:104070008C4D3EC8B1679387C7103ED6D247139682
:104080000D0141826361F602B650265496540659DA
:10409000F649664AD64A464BB64B264C964C064DD8
:1040A000F25D6561828031466319CB02C247338677
:1040B000B7016696834A0600014AA25733D64A41A1
:1040C000058AA1EB29C6324505047D2A1374F40F35
:1040D000337624032DE601448DA041466317CB00BF
:1040E000E2473386FD006296F1B761466317CB0065
:1040F000F2473386FD005E9675BF13060002E31596
:10410000CBF882573386FD00B2573E9665B71255FD
:1041100065BF11C63246A6856A85EFF09FCF93062C
:104120001D00139D0601135D0D0133063D4163180B
:1041300026018504C204C1804E8D850D81B7050A14
:10414000A147E31CFAF6D5BF797122D426D24AD012
:104150004ECE52CC56CA5AC85EC606D62A842E8A7D
:10416000B284B68A3A8BC28B3E8993D9170003C6B4
:10417000040001EEB250225492540259F249624AAC
:10418000D24A424BB24B4561828022854E945E8872
:10419000CA875A87D686D2854204EFF0FFE3418072
:1041A0008504F1B7011185451305000606CE22CC22
:1041B00026CA4AC802C23729014002C402C6EF100B
:1041C000E02E8D47C1440D444C0013050980231295
:1041D000F10026C622C4EF00B07B05461305098016
:1041E0008D45EF10400722C437140140AD474C0005
:1041F000130504402312F10026C6EF007079130561
:10420000044001468545EF100005130504400546AE
:10421000A945EF104004F2406244D244424905618E
:10422000828001114AC84EC637290140B7190140A2
:1042300022CC26CA06CEAA84214413090980938978
:104240000940014689454A85EF10E00093978401B3
:10425000E187054663C30700014689454E85EF00A7
:10426000907F7D14054689454A8586041374F40FB2
:10427000EF00707E93F4F40F69F4F2406244D2448C
:104280004249B24905618280411122C42A842181B8
:1042900006C6EFF01FF91375F40F2244B240410136
:1042A0006FF03FF8411122C43724014026C2014675
:1042B000AA8485451305048006C6EF00D0792685BB
:1042C000EFF03FF6130504802244B24092440546C5
:1042D000854541016F003078011122CC2A841305F5
:1042E000A00206CE36C22EC632C4EFF0BFFB228536
:1042F000EFF09FF922463285EFF01FF91305B00267
:10430000EFF05FFAB2452E85EFF01FF89246368542
:10431000EFF09FF76244F2401305C00205616FF0B1
:104320007FF8411106C622C4EFF0DFE737140140E1
:104330000146A14513050440EF00F0711305400646
:10434000EF10E0550546A14513050440EF00B0709D
:1043500013054006EF10A05401468545130504409F
:10436000EF00706F13054006EF1060534545EFF006
:104370007FF313058007EF10805213056003EFF001
:104380007FF20145EFF0FFE91305A003EFF09FF185
:104390001545EFF01FE91305200BEFF0BFF0314595
:1043A000EFF03FE83145EFF0DFE70145EFF07FE761
:1043B00013053003EFF0FFE613053003EFF07FE65F
:1043C0001305700BEFF01FEE13055003EFF07FE5C0
:1043D0001305B00BEFF01FED13052003EFF07FE4A2
:1043E0001305200CEFF01FEC0545EFF09FE31305DC
:1043F000300CEFF03FEB5545EFF0BFE21305400CFA
:10440000EFF05FEA13050002EFF0BFE11305600C67
:10441000EFF05FE93D45EFF0DFE01305000DEFF051
:104420007FE81305400AEFF0DFDF1305100AEFF015
:104430005FDF1305000EEFF0FFE61305000DEFF050
:104440005FDE2145EFF0FFDD3945EFF09FDD2545CB
:10445000EFF03FDD2545EFF0DFDC1545EFF07FDCC9
:1044600013051003EFF0FFDB13053003EFF07FDBE4
:1044700013058004EFF0FFDA5D45EFF09FDA514558
:10448000EFF03FDA5545EFF0DFD913051003EFF0F9
:104490005FD913054003EFF0DFD81305100EEFF0DE
:1044A0007FE01305000DEFF0DFD72145EFF07FD758
:1044B0003945EFF01FD72545EFF0BFD62545EFF082
:1044C0005FD65545EFF0FFD513051003EFF07FD50C
:1044D00013053003EFF0FFD413058004EFF07FD411
:1044E0005D45EFF01FD45145EFF0BFD35545EFF0D8
:1044F0005FD313051003EFF0DFD213054003EFF095
:104500005FD213051002EFF0FFD92244B240130529
:10451000900241016FF01FD99377350099EF13078F
:1045200040063377E502854719E79307001933758D
:10453000F502933715003E8582808147EDBF130851
:10454000E5844208135808019308100863E0081135
:10455000397162CC66CA373CE101B78CE20122DCDA
:1045600026DA4AD84ED652D456D25AD05ECE06DE7D
:104570006AC86EC63E8B3A84B68A3289AE89AA8BE7
:104580008144130A207B130C0C38938C0C506393DA
:104590004B09FD19B96C556C014A93F9F90F938CCD
:1045A0008C9A130C0C18854D131D0A01135D0D0117
:1045B000636E3D071307C00385663304E4029386E8
:1045C00006E15566130606187D198545370500185E
:1045D000B38ADA025A943309C9025694EF00F06E96
:1045E0000545EF00D0534A9426942285EF00707C55
:1045F000EF104001F2506254D2544259B259225A3B
:10460000925A025BF24B624CD24C424DB24D014584
:10461000216182805285EFF03FF019C5E694050ACA
:10462000420A135A0A01A5B7E294D5BFB3874C01D9
:1046300083C707005E85B3878703BE94EFF0DFED85
:1046400001C56313BD01E294050AB9BF0545828027
:1046500013074006B377E5023355E5024D4713755E
:10466000F50F6374A7009387470613D527003E957F
:104670001D473375E50239671307479B2E9703479C
:10468000F7FF8D8B3A962A9699E7894763E5B7003D
:104690007D16420641821D453375A60282807971DE
:1046A00022D4556426D206D64AD04ECE52CC56CA13
:1046B0005AC85EC662C413040418EF00106C335469
:1046C00085029387818603D70700AA84630887063B
:1046D000239087001309207B9309C016130AD01674
:1046E00063F289024A85EFF03FE305095DCD630877
:1046F0004401130424E9420913590901D5B74209B9
:1047000013590901B7F70020138787E2B96A23120A
:1047100027018149138987E26D4B938A8A9A854BD9
:10472000714C138A190063658B08137AFA0F05041C
:10473000230349011374F40FA3038900D5679387FA
:104740000718B3F4F4028567938707E137F4002074
:1047500033D7F402B3F4F4021377F70F2304E4E23F
:104760001307C003130484E2B3D7E402B3F4E402F2
:1047700093F7F70FA300F4002301940003554400BE
:104780008345640003467400EFF09FEC2304A4000B
:10479000B250225492540259F249624AD24A424BD0
:1047A000B24B224C014545618280130434E9A1B724
:1047B00003554900EFF05FD619C9639A7901E30602
:1047C00084F70D1493190A0193D9090199BFD69959
:1047D00083C70900E36BF4F41D8CEDB70111854527
:1047E0003705001806CE22CC26CAEF00104E05452C
:1047F000EF00F0321145EF00D017A9679387171A21
:10480000630CF50AEF0030140545EF001034014445
:104810009304A00F13051004EF00104F05E1631877
:1048200094000545F2406244D2440561828005044B
:1048300051451374F40FEF108006E9BF9307A00FE2
:104840000545E301F4FE13050010EF009032054525
:10485000EF00F032EF00105BEF00D05B85450545BF
:10486000EF00704DEF00105AEF00904E21657D155E
:10487000EF00B056EF001059A1459307200313072E
:10488000A003C94619461305607EEFF05FCBEF0029
:10489000504DA9659385151A1145EF00D00B02C440
:1048A000CD472304F100280085473EC6EF00B01B2A
:1048B000EFF0FFDE0145BDB7854537050018EF0075
:1048C000D0400145EF001027EF00D0548545054545
:1048D000EF007046EF001053D9B779710147930686
:1048E000000F1306000F93050003014506D622D4DE
:1048F00026D24AD04ECE52CC56CA5AC85EC6EFF027
:10490000CFCBB7FA00208966938686B51306A0053B
:104910009305600993898AE213058007EFF08FDB26
:1049200083C42900994713096009B384F40237EA64
:1049300000002685EF1060052A841385A405EF107A
:10494000C0041306A005B306C5027D4793056009A0
:10495000130580073306C402BD86B306D940C206DC
:10496000C1823D861306860742064182EFF0EFCBF7
:1049700003C519009309C0030605EF2090580326CC
:104980000A8D83264A8DEF208068B7E7000003A6D2
:10499000878D83A6C78DEF10F0682A8B33D534033B
:1049A000AE8BEF2010562A86AE865A85DE85EF1034
:1049B0008046EF20304B93140501C180139504010C
:1049C0004185EF00907C2A841385A405420541852A
:1049D000EF00B07B13068004B306C502930560099F
:1049E000130580073306C402BD86B306D940C2064C
:1049F0004169130709FEC1823D86130686074206F8
:104A00004182EFF08FC203C58AE20605EF20704FA6
:104A100003260A8D83264A8DEF20605FB7E70000EA
:104A200003A6078E83A6478EEF10D05F2A8A33D560
:104A30003403AE8AEF20F04C2A86AE865285D685A6
:104A4000EF10603DEF20104293140501C1801395D3
:104A500004014185EF0070732A841385A405420583
:104A60004185EF0090721306D002B306C502B25022
:104A70009254F249624AD24A424BB24B1307098020
:104A800002593306C402BD86225493866609C206C3
:104A9000C182930560091305800745613D861306B1
:104AA0008607420641826FF04FB8397126DA4AD83C
:104AB000C16437F9002022DC4ED652D406DE13043E
:104AC00089E2EFF09FE137EA0000FD14B7E900004A
:104AD000794681450A85EFB0BF8683564400034777
:104AE0006400834774000348840013068A8EF945E6
:104AF0000A85EF30B0320148A686C14701470A86D1
:104B000081450145EFF04FE4794681450A85EFB0D4
:104B10003F83834689E203471400834724001386BA
:104B20000990F9450A85EF30702F0148C1470147C8
:104B3000A6860A86930500020145EFF0EFE0130513
:104B4000803EEFD0BFF869B74111094506C6EF00B6
:104B50002071EF007052716513050520EF00F056CB
:104B600083A5C18137E500001305C590EF307012B1
:104B7000EFF02FFBC120B7E5000037E5000093857B
:104B8000C59113054592EF30D01001479306000FF1
:104B90001306000F81450145EFF02FA27945EF0084
:104BA000D05E9355F540C20537E50000C185130579
:104BB0004594EF30100E37E5000013058595EF3072
:104BC0001022EFF0BFC1EFD0BF8AB7C70020373641
:104BD0000000B7E5000037C50020814805689387CD
:104BE00087E211478146130666E8938545961305CB
:104BF00005DAEFD0BF97B7E7002037560000B7E5DA
:104C0000000037F5002081480568938787E2114747
:104C100081461306A6AA93858597130585E3EFD0F1
:104C2000FF94EFD04FF237E500001305C598EF3041
:104C3000101B01A039718545314506DE22DC26DADC
:104C40004AD84ED602C002C202C402C602C802CA74
:104C500002CC231E0100EF00700585452165EF00A1
:104C6000D00637140140E1770D49C1498A85130503
:104C700004802310F1004EC44AC2192B130504808E
:104C8000A165C12BE144A1478A85130504C0231007
:104C9000F10026C44AC2ED2991478A85130504C054
:104CA000231031013EC4ED21930700028A851305CC
:104CB00004C02310F10026C44AC2D929B707040151
:104CC0003EC6B70702003EC8B7070002374400409F
:104CD00085073ECA6C009D47130504C026CC231EE1
:104CE000F100EF00F018130504C08545EF00F01D3A
:104CF000F2506254D2544259B25921618280B7179E
:104D000002409843B706FFF841111367170098C394
:104D1000D84337060200758FD8C39843B706F7FE0D
:104D2000FD16758F98C39843B706FCFFFD16758F67
:104D300098C3D843B70681FFFD16758FD8C33707D0
:104D40009F0098C702C402C69843C166558F98C396
:104D5000B7160240130700509C42F18F3EC6A2478F
:104D600085073EC4B24781E7A247E397E7FEB7173E
:104D700002409C431397E7006358070885473EC6E7
:104D8000324785476310F708B72702409843B706B4
:104D9000C1FFFD161367070198C39843719B98C321
:104DA00098431367270098C3B7170240D843D8C366
:104DB000D843D8C3D84313670740D8C3D843758FA7
:104DC000D8C3D843B7061D00558FD8C33717024044
:104DD0001C43B7060001D58F1CC3B7170240984388
:104DE00093166700E3DD06FED843B7160240719BB9
:104DF000D8C3D84313672700D8C32147DC42B18BFF
:104E0000E39EE7FE4101828002C69DBF397126DA2A
:104E10008545AA843705020006DE22DC02CA02CCE0
:104E200002CE02D002D202D402D602C602C8712D2E
:104E300085451145A52D9147231AF10037140140EE
:104E40008D473ECC4C08E147130504803ECE8926B1
:104E5000A147231AF1004C089147130504803ECE68
:104E6000374400403526B7070C000C1013050440EA
:104E70003ED426D002D223160102EF00F0060546EA
:104E80009305505213050440EF007015930760130B
:104E90002316F10085472307F100680085473EC8C7
:104EA000D926130504408545EF00B011F250625435
:104EB000D25421618280397122DC85452A84130510
:104EC000000406DE26DA02CA02CC02CE02D002D2EA
:104ED00002D402D602C602C8CD2B85454145F9232E
:104EE0008D4785443ECC4C08E14737150140231AD5
:104EF00091003ECE712C8947231AF1004C0891474E
:104F0000371501403ECE692422D037240040B70730
:104F10000C000C10130504803ED402D223160102AB
:104F2000EF00807C05469305505213050480EF0086
:104F3000100B930770152316F100680085472307AF
:104F400091003EC80D26130504808545EF007007CB
:104F5000F2506254D25421618280397122DC85453D
:104F60002A841305000806DE02CA02CC02CE02D053
:104F700002D202D402D602C602C8812B8545414521
:104F800035239147231AF1008D473ECC4C08E14769
:104F9000371501403ECEED2AA147231AF1004C08F7
:104FA0009147371501403ECEE52222D037240040FC
:104FB000B7070C000C10130504C03ED402D2231610
:104FC00001021D27054693055052130504C0EF004A
:104FD0001001930780152316F10085472307F10080
:104FE000680085473EC84124130504C08545EF008D
:104FF000407DF25062542161828001A001A001A095
:1050000001A001A001A001A001A001A001A001A098
:1050100001A001A001A001A001A001A001A001A088
:1050200001A001A001A001A001A001A001A001A078
:1050300001A001A001A001A001A001A001A001A068
:1050400001A001A001A001A001A001A001A001A058
:1050500001A001A001A001A001A001A001A001A048
:1050600001A001A001A001A001A001A001A001A038
:1050700001A001A001A001A001A001A001A001A028
:1050800001A001A001A001A001A001A001A001A018
:1050900001A001A001A001A001A001A001A001A008
:1050A00001A001A001A001A001A001A001A001A0F8
:1050B00001A001A001A001A097C1FF1F93818199C8
:1050C00017B10020130101F417950000130505D056
:1050D00097B5FF1F938505F31386818363FAC50097
:1050E0008322050023A0550011059105E3EAC5FEC2
:1050F0001385818397A50020938585E56377B500A7
:10510000232005001105E36DB5FEFD42739002BC3E
:10511000FD4273904280B78200009382028073A0A8
:10512000023097B2FFFF938262F193E232007390F4
:105130005230EFF0DFBC97020000938222A17390FF
:105140001234730020304111054506C6712EB2405D
:105150000145410151AE4111B777004002C6938726
:1051600007C03EC6B2473E952AC6B2478CC341012E
:1051700082804111B777004002C6938707C03EC6C0
:10518000B2473E952AC6B24703D507004101828047
:105190009C4513F7070113F8F70001C7D84133689E
:1051A000E80083D5050013F7F50F39C31841814690
:1051B000854E3D4F930F800293028004214E33961B
:1051C000DE00B3F8C500631116039398260033136D
:1051D0001F011343F3FF3377E300B318180133E7DC
:1051E000E800639FF70550C98506E39AC6FD18C11C
:1051F0001307F00F6375B70454412146854E3D4FA8
:10520000930F800293028004414EB398CE0033F78F
:1052100015016392E8021317260001173313EF00FC
:105220001343F3FFB376D3003317E800D98E639DA1
:10523000F701232A15010506E319C6FD54C1828032
:10524000E39457FA10C94DB7E39757FE2328150189
:10525000DDB70CC9828019C20CC982804CC982801A
:1052600023A6A18682809387C186944303470500C5
:1052700089E683472500920731A894430546639148
:10528000C604834725000346150092076314D60021
:1052900093E707F8B7E600E093F7F70FBA96238095
:1052A000F6408546935757003397E6005441ADC604
:1052B000938707048A07B7E600E0B69798C3828011
:1052C0008C4389466393D5028346150083472500A6
:1052D0006365D6008A06B69779BF9386E6038A0689
:1052E000B69793F7F70F920765B790438D46631E05
:1052F000D60083461500834725006364D6008606E2
:10530000D9BF9386C6078606E1BF94439147E39AC7
:10531000F6F88347150085B79387070661BF37778F
:1053200000401C4309C593E707101CC3828093F714
:10533000F7EFE5BF377700405C4309C593E70710F7
:105340005CC3828093F7F7EFE5BFB7170240238075
:1053500007022380070205476306E500114763063D
:10536000E50082802380A702828015472380E70220
:105370008280371702401C535D8D08D3828001C99B
:10538000371702401C53A166D58F1CD38280B716F5
:1053900002409C5261777D17F98F9CD2828037172B
:1053A00002405C439146B18B6385D700A14663867A
:1053B000D706B7177A00938707201CC1371602401B
:1053C0005C4237070020130707079183BD8BBA970C
:1053D00083C607001C41B3D7D7005CC15442A182E9
:1053E0009D8ABA9683C60600B3D6D70014C5544228
:1053F000AD829D8A369703470700B3D7E7005CC5A7
:1054000058423983937637001387018236970347D2
:105410000700B3D7E7021CC982805C43544341674D
:10542000C983F98E37F7FF1F0327C770BD8B890724
:105430001316170163480600454601476392C702E9
:10544000C94739A809476389E7023D476388E702EE
:1054500041476388E702454601476393C700C14758
:1054600085E6B746024083A60680C18A8DC6B71678
:105470007A009386062025A00147D9B70547B5478E
:10548000C5B70147BD47E9BFB7160240D4421396DE
:10549000E600E35E06FCB7163D0093860690B387F0
:1054A000D7021CC101DF1C41858301BF99C5371795
:1054B00002401C4F5D8D08CF8280B7170240984F85
:1054C0001345F5FF798D88CF828099C53717024043
:1054D0005C4F5D8D48CF8280B7170240D84F13458F
:1054E000F5FF798DC8CF828001C9371702401C5360
:1054F000C166D58F1CD38280B71602409C5241777B
:105500007D17F98F9CD28280935755000547639988
:10551000E700B71702409C4333D5A7000589828076
:1055200009476396E700B71702409C53F5B7B717D2
:105530000240DC53D5B7B737004003D7078089C591
:10554000598D2390A78082801345F5FF798DD5BFB3
:10555000B737004003D74780136707012392E780DE
:1055600082803737004083574780C207C183BD9B85
:10557000C207C1832312F7808280B736004083D7E9
:10558000868103D5C68103D78681C207131605011C
:105590004207C18341834182938606806387E70087
:1055A00003D5C6014207598D828013950701518D9D
:1055B0008280011106CE2AC6EFF09FF93245B73737
:1055C0000040F240135705014205239CE7804181CA
:1055D000239EA78005616FF0DFF8011106CE2AC671
:1055E000EFF01FF73245B7370040F240135705017F
:1055F0003D8B42052394E78041812396A780056176
:105600006FF03FF6373700408357478093F7070224
:10561000E5DF82803737004083574780C207C18368
:10562000DD9BC207C1832312F780373700408357C1
:105630004780A18BEDDF8280B737004003D74780DA
:105640001345F5FF798D2392A7808280373700407C
:105650008357478003570780C207698FC18309C7F3
:105660007D8D3335A0008280014582806FF0DFFCA4
:10567000035705008D679387070483D625007D8F28
:1056800083D70500D58F83D64500D58F83D6650097
:10569000D58F83D68500D58F83D6A500D58F83D6A9
:1056A000C500D58F83D6E500D58FD98F2310F5009F
:1056B0000357C501FD779387F77FF98F231EF50008
:1056C00083D705012318F50082808357050091C513
:1056D00093E707042310F5008280C207C18393F784
:1056E000F7FBC207C183FDB783560501F577FD17A8
:1056F000F58F83D66500397122DC06DED58F03D79E
:10570000C5002318F5008356C500FD779387379FA2
:10571000F58F83D645002A842EC6D58F83D6850083
:10572000D58F83D6A500D58F2316F5008357450165
:10573000C207C18393F7F7CFD98F231AF500680802
:10574000EFF0FFC5B747014093870780B245631E5E
:10575000F404A2578356C4006547B387E702C20624
:10576000C186984163D5060406070356C400420665
:10577000B3D7E702130740064186B3D6E702B3F773
:10578000E7029206635706028E0793872703B3D773
:10579000E70213F77700B367D700C207C18323146A
:1057A000F400F250625421618280925765B70A0773
:1057B0006DBF920793872703B3D7E702BD8BD58FC1
:1057C000E9BF81C98357C5000967D98F2316F50042
:1057D00082800357C500F977FD17F98FC5BF13F70E
:1057E000F50F85471583B395B7006319F700930745
:1057F000C500984301CED98D8CC38280894693071A
:105800004501E318D7FE93070501E5B793C5F5FFFA
:10581000F98DDDB793F5F51F2312B500828003558E
:1058200045001375F51F8280035505006D8D3335D6
:10583000A000828013F7F50F85461583B397B60055
:105840006313D7020357C500F98F035705000145BD
:105850004207418381CB0545A181B315B5006D8F0A
:105860003335E000828089466315D7000357050170
:10587000E1BF03574501C9BF83A7C18137177A002C
:1058800013070720B3D7E70293F7F70F2389F186B1
:105890001307803EB387E7022398F1868280B7F72B
:1058A00000E0414798C303D7018781463306A7022A
:1058B00090CBD4CB98431367170298C3D843058B7A
:1058C00075DFD843799BD8C38280797122D42A842A
:1058D00011658545110506D6EFF05FBD93070020E1
:1058E0002312F100371501408D473EC44C00E147BB
:1058F000130505803EC6EFF0BF8922C8374401403A
:10590000B70708000C08130504803ECC02CA231E0A
:105910000100EFF07FDD130504808545EFF07FEA9D
:10592000B250225445618280011126CAB744014019
:1059300022CC4AC84EC606CEAE8932890144938431
:105940000480634A2401F24062444A85D2444249B9
:10595000B24905618280930500042685EFF0DFECF3
:105960007DD9B38789008385070026850504C20594
:10597000C181EFF03FEAF1B77325103482807325BF
:1059800020348280732530348280930780163365FB
:10599000F5026354050013058516B9679306900553
:1059A0009387079C63C7A60006053E95031505006F
:1059B000828042054181130765FA4207418363ED06
:1059C000E6001307400B3305A74042054181060559
:1059D000AA970395070082801307C5F44207418305
:1059E00063EBE6000607BA9703D507003305A0402E
:1059F000420541858280130780163305A740420582
:105A000041810605AA97CDB7C167637EF50293076A
:105A1000F00F1307000263ECA7009787000093873D
:105A2000E705AA9703C507003305A74082802181B7
:105A30009787000093878704AA9703C507006147EB
:105A40003305A7408280B7070001636EF5006181CE
:105A50009787000093878702AA9703C5070021470D
:105A60003305A74082804181978700009387070113
:105A7000AA9703C5070041473305A7408280B68730
:105A8000B2882A832E88639D061463F9C50A41678C
:105A9000636EE61AB70700016363F6349356860116
:105AA000E14717870000130767FD36970347070094
:105AB000BA97130700021D8F19CB3398E500B3572F
:105AC000F500B318E60033E807013313E50013D6F9
:105AD00008013355C80293960801C1829357030108
